{
  "_format": "hh-sol-artifact-1",
  "contractName": "WETHHolder",
  "sourceName": "contracts/WETHHolder.sol",
  "abi": [
    {
      "inputs": [
        {
          "internalType": "address",
          "name": "_owner",
          "type": "address"
        }
      ],
      "stateMutability": "nonpayable",
      "type": "constructor"
    },
    {
      "inputs": [
        {
          "internalType": "address",
          "name": "owner",
          "type": "address"
        }
      ],
      "name": "OwnableInvalidOwner",
      "type": "error"
    },
    {
      "inputs": [
        {
          "internalType": "address",
          "name": "account",
          "type": "address"
        }
      ],
      "name": "OwnableUnauthorizedAccount",
      "type": "error"
    },
    {
      "anonymous": false,
      "inputs": [
        {
          "indexed": true,
          "internalType": "address",
          "name": "to",
          "type": "address"
        },
        {
          "indexed": false,
          "internalType": "uint256",
          "name": "amount",
          "type": "uint256"
        }
      ],
      "name": "EtherWithdrawn",
      "type": "event"
    },
    {
      "anonymous": false,
      "inputs": [
        {
          "indexed": true,
          "internalType": "address",
          "name": "previousOwner",
          "type": "address"
        },
        {
          "indexed": true,
          "internalType": "address",
          "name": "newOwner",
          "type": "address"
        }
      ],
      "name": "OwnershipTransferred",
      "type": "event"
    },
    {
      "anonymous": false,
      "inputs": [
        {
          "indexed": true,
          "internalType": "address",
          "name": "from",
          "type": "address"
        },
        {
          "indexed": false,
          "internalType": "uint256",
          "name": "amount",
          "type": "uint256"
        }
      ],
      "name": "Received",
      "type": "event"
    },
    {
      "anonymous": false,
      "inputs": [
        {
          "indexed": true,
          "internalType": "address",
          "name": "token",
          "type": "address"
        },
        {
          "indexed": true,
          "internalType": "address",
          "name": "to",
          "type": "address"
        },
        {
          "indexed": false,
          "internalType": "uint256",
          "name": "amount",
          "type": "uint256"
        }
      ],
      "name": "TokenWithdrawn",
      "type": "event"
    },
    {
      "inputs": [
        {
          "internalType": "address",
          "name": "token",
          "type": "address"
        }
      ],
      "name": "getTokenBalance",
      "outputs": [
        {
          "internalType": "uint256",
          "name": "",
          "type": "uint256"
        }
      ],
      "stateMutability": "view",
      "type": "function"
    },
    {
      "inputs": [],
      "name": "owner",
      "outputs": [
        {
          "internalType": "address",
          "name": "",
          "type": "address"
        }
      ],
      "stateMutability": "view",
      "type": "function"
    },
    {
      "inputs": [],
      "name": "renounceOwnership",
      "outputs": [],
      "stateMutability": "nonpayable",
      "type": "function"
    },
    {
      "inputs": [
        {
          "internalType": "address",
          "name": "newOwner",
          "type": "address"
        }
      ],
      "name": "transferOwnership",
      "outputs": [],
      "stateMutability": "nonpayable",
      "type": "function"
    },
    {
      "inputs": [
        {
          "internalType": "address",
          "name": "token",
          "type": "address"
        },
        {
          "internalType": "address",
          "name": "to",
          "type": "address"
        }
      ],
      "name": "transferTokens",
      "outputs": [],
      "stateMutability": "nonpayable",
      "type": "function"
    },
    {
      "inputs": [
        {
          "internalType": "address payable",
          "name": "to",
          "type": "address"
        },
        {
          "internalType": "uint256",
          "name": "amount",
          "type": "uint256"
        }
      ],
      "name": "withdrawEther",
      "outputs": [],
      "stateMutability": "nonpayable",
      "type": "function"
    },
    {
      "stateMutability": "payable",
      "type": "receive"
    }
  ],
  "bytecode": "0x608060405234801561001057600080fd5b5060405161088d38038061088d83398101604081905261002f916100be565b806001600160a01b03811661005e57604051631e4fbdf760e01b81526000600482015260240160405180910390fd5b6100678161006e565b50506100ee565b600080546001600160a01b038381166001600160a01b0319831681178455604051919092169283917f8be0079c531659141344cd1fd0a4f28419497f9722a3daafe3b4186f6b6457e09190a35050565b6000602082840312156100d057600080fd5b81516001600160a01b03811681146100e757600080fd5b9392505050565b610790806100fd6000396000f3fe6080604052600436106100695760003560e01c8063715018a611610043578063715018a61461011f5780638da5cb5b14610134578063f2fde38b1461015c57600080fd5b80633aecd0e3146100aa578063522f6815146100dd5780636a092e79146100ff57600080fd5b366100a55760405134815233907f88a5966d370b9919b20f3e2c13ff65706f196a4e32cc2c12bf57088f885258749060200160405180910390a2005b600080fd5b3480156100b657600080fd5b506100ca6100c5366004610696565b61017c565b6040519081526020015b60405180910390f35b3480156100e957600080fd5b506100fd6100f83660046106ba565b6101ed565b005b34801561010b57600080fd5b506100fd61011a3660046106e6565b61036e565b34801561012b57600080fd5b506100fd610568565b34801561014057600080fd5b506000546040516001600160a01b0390911681526020016100d4565b34801561016857600080fd5b506100fd610177366004610696565b61057c565b6040516370a0823160e01b81523060048201526000906001600160a01b038316906370a0823190602401602060405180830381865afa1580156101c3573d6000803e3d6000fd5b505050506040513d601f19601f820116820180604052508101906101e7919061071f565b92915050565b6101f56105d3565b6001600160a01b0382166102505760405162461bcd60e51b815260206004820152601960248201527f496e76616c696420726563697069656e7420616464726573730000000000000060448201526064015b60405180910390fd5b600081116102a05760405162461bcd60e51b815260206004820152601960248201527f496e76616c6964207769746864726177616c20616d6f756e74000000000000006044820152606401610247565b804710156102f05760405162461bcd60e51b815260206004820152601a60248201527f496e73756666696369656e742045746865722062616c616e63650000000000006044820152606401610247565b6040516001600160a01b0383169082156108fc029083906000818181858888f19350505050158015610326573d6000803e3d6000fd5b50816001600160a01b03167f06097061aeda806b5e9cb4133d9899f332ff0913956567fc0f7ea15e3d19947c8260405161036291815260200190565b60405180910390a25050565b6103766105d3565b6001600160a01b0381166103cc5760405162461bcd60e51b815260206004820152601960248201527f496e76616c696420726563697069656e742061646472657373000000000000006044820152606401610247565b6040516370a0823160e01b81523060048201526000906001600160a01b038416906370a0823190602401602060405180830381865afa158015610413573d6000803e3d6000fd5b505050506040513d601f19601f82011682018060405250810190610437919061071f565b9050600081116104895760405162461bcd60e51b815260206004820152601760248201527f496e76616c6964207472616e7366657220616d6f756e740000000000000000006044820152606401610247565b6040517fa9059cbb0000000000000000000000000000000000000000000000000000000081526001600160a01b0383811660048301526024820183905284169063a9059cbb906044016020604051808303816000875af11580156104f1573d6000803e3d6000fd5b505050506040513d601f19601f820116820180604052508101906105159190610738565b50816001600160a01b0316836001600160a01b03167f8210728e7c071f615b840ee026032693858fbcd5e5359e67e438c890f59e56208360405161055b91815260200190565b60405180910390a3505050565b6105706105d3565b61057a6000610619565b565b6105846105d3565b6001600160a01b0381166105c7576040517f1e4fbdf700000000000000000000000000000000000000000000000000000000815260006004820152602401610247565b6105d081610619565b50565b6000546001600160a01b0316331461057a576040517f118cdaa7000000000000000000000000000000000000000000000000000000008152336004820152602401610247565b600080546001600160a01b038381167fffffffffffffffffffffffff0000000000000000000000000000000000000000831681178455604051919092169283917f8be0079c531659141344cd1fd0a4f28419497f9722a3daafe3b4186f6b6457e09190a35050565b6001600160a01b03811681146105d057600080fd5b6000602082840312156106a857600080fd5b81356106b381610681565b9392505050565b600080604083850312156106cd57600080fd5b82356106d881610681565b946020939093013593505050565b600080604083850312156106f957600080fd5b823561070481610681565b9150602083013561071481610681565b809150509250929050565b60006020828403121561073157600080fd5b5051919050565b60006020828403121561074a57600080fd5b815180151581146106b357600080fdfea26469706673582212201df1102c2d98af158de15a9d98c20df0e58c2a83f0f29297b86fc16d8c98f09a64736f6c63430008170033",
  "linkReferences": {},
  "deployedLinkReferences": {}
}