{
  "_format": "hh-sol-artifact-1",
  "contractName": "SafeMoonLikeToken",
  "sourceName": "contracts/SafeMoonLikeToken.sol",
  "abi": [
    {
      "inputs": [
        {
          "internalType": "address",
          "name": "_uniswapRouter",
          "type": "address"
        },
        {
          "internalType": "contract IWETHHolder",
          "name": "_holder",
          "type": "address"
        }
      ],
      "stateMutability": "nonpayable",
      "type": "constructor"
    },
    {
      "inputs": [
        {
          "internalType": "address",
          "name": "spender",
          "type": "address"
        },
        {
          "internalType": "uint256",
          "name": "allowance",
          "type": "uint256"
        },
        {
          "internalType": "uint256",
          "name": "needed",
          "type": "uint256"
        }
      ],
      "name": "ERC20InsufficientAllowance",
      "type": "error"
    },
    {
      "inputs": [
        {
          "internalType": "address",
          "name": "sender",
          "type": "address"
        },
        {
          "internalType": "uint256",
          "name": "balance",
          "type": "uint256"
        },
        {
          "internalType": "uint256",
          "name": "needed",
          "type": "uint256"
        }
      ],
      "name": "ERC20InsufficientBalance",
      "type": "error"
    },
    {
      "inputs": [
        {
          "internalType": "address",
          "name": "approver",
          "type": "address"
        }
      ],
      "name": "ERC20InvalidApprover",
      "type": "error"
    },
    {
      "inputs": [
        {
          "internalType": "address",
          "name": "receiver",
          "type": "address"
        }
      ],
      "name": "ERC20InvalidReceiver",
      "type": "error"
    },
    {
      "inputs": [
        {
          "internalType": "address",
          "name": "sender",
          "type": "address"
        }
      ],
      "name": "ERC20InvalidSender",
      "type": "error"
    },
    {
      "inputs": [
        {
          "internalType": "address",
          "name": "spender",
          "type": "address"
        }
      ],
      "name": "ERC20InvalidSpender",
      "type": "error"
    },
    {
      "inputs": [],
      "name": "EnforcedPause",
      "type": "error"
    },
    {
      "inputs": [],
      "name": "ExpectedPause",
      "type": "error"
    },
    {
      "inputs": [
        {
          "internalType": "address",
          "name": "owner",
          "type": "address"
        }
      ],
      "name": "OwnableInvalidOwner",
      "type": "error"
    },
    {
      "inputs": [
        {
          "internalType": "address",
          "name": "account",
          "type": "address"
        }
      ],
      "name": "OwnableUnauthorizedAccount",
      "type": "error"
    },
    {
      "anonymous": false,
      "inputs": [
        {
          "indexed": true,
          "internalType": "address",
          "name": "owner",
          "type": "address"
        },
        {
          "indexed": true,
          "internalType": "address",
          "name": "spender",
          "type": "address"
        },
        {
          "indexed": false,
          "internalType": "uint256",
          "name": "value",
          "type": "uint256"
        }
      ],
      "name": "Approval",
      "type": "event"
    },
    {
      "anonymous": false,
      "inputs": [
        {
          "indexed": true,
          "internalType": "address",
          "name": "liquidityPool",
          "type": "address"
        }
      ],
      "name": "LiquidityPoolCreated",
      "type": "event"
    },
    {
      "anonymous": false,
      "inputs": [
        {
          "indexed": true,
          "internalType": "address",
          "name": "previousOwner",
          "type": "address"
        },
        {
          "indexed": true,
          "internalType": "address",
          "name": "newOwner",
          "type": "address"
        }
      ],
      "name": "OwnershipTransferred",
      "type": "event"
    },
    {
      "anonymous": false,
      "inputs": [
        {
          "indexed": false,
          "internalType": "address",
          "name": "account",
          "type": "address"
        }
      ],
      "name": "Paused",
      "type": "event"
    },
    {
      "anonymous": false,
      "inputs": [
        {
          "indexed": false,
          "internalType": "address",
          "name": "from",
          "type": "address"
        },
        {
          "indexed": false,
          "internalType": "uint256",
          "name": "amount",
          "type": "uint256"
        }
      ],
      "name": "ReceivedTokens",
      "type": "event"
    },
    {
      "anonymous": false,
      "inputs": [
        {
          "indexed": true,
          "internalType": "address",
          "name": "holder",
          "type": "address"
        },
        {
          "indexed": false,
          "internalType": "uint256",
          "name": "amount",
          "type": "uint256"
        }
      ],
      "name": "ReflectionsClaimed",
      "type": "event"
    },
    {
      "anonymous": false,
      "inputs": [
        {
          "indexed": false,
          "internalType": "uint256",
          "name": "amount",
          "type": "uint256"
        }
      ],
      "name": "ReflectionsDistributed",
      "type": "event"
    },
    {
      "anonymous": false,
      "inputs": [
        {
          "indexed": false,
          "internalType": "uint256",
          "name": "liquidityAllocation",
          "type": "uint256"
        },
        {
          "indexed": false,
          "internalType": "uint256",
          "name": "reflectionAllocation",
          "type": "uint256"
        }
      ],
      "name": "TaxAllocationsUpdated",
      "type": "event"
    },
    {
      "anonymous": false,
      "inputs": [
        {
          "indexed": false,
          "internalType": "uint256",
          "name": "buyTax",
          "type": "uint256"
        },
        {
          "indexed": false,
          "internalType": "uint256",
          "name": "sellTax",
          "type": "uint256"
        }
      ],
      "name": "TaxesUpdated",
      "type": "event"
    },
    {
      "anonymous": false,
      "inputs": [
        {
          "indexed": true,
          "internalType": "address",
          "name": "from",
          "type": "address"
        },
        {
          "indexed": true,
          "internalType": "address",
          "name": "to",
          "type": "address"
        },
        {
          "indexed": false,
          "internalType": "uint256",
          "name": "value",
          "type": "uint256"
        }
      ],
      "name": "Transfer",
      "type": "event"
    },
    {
      "anonymous": false,
      "inputs": [
        {
          "indexed": false,
          "internalType": "address",
          "name": "account",
          "type": "address"
        }
      ],
      "name": "Unpaused",
      "type": "event"
    },
    {
      "stateMutability": "payable",
      "type": "fallback"
    },
    {
      "inputs": [],
      "name": "MINIMUM_HOLDING_FOR_REFLECTION",
      "outputs": [
        {
          "internalType": "uint256",
          "name": "",
          "type": "uint256"
        }
      ],
      "stateMutability": "view",
      "type": "function"
    },
    {
      "inputs": [
        {
          "internalType": "address",
          "name": "owner",
          "type": "address"
        },
        {
          "internalType": "address",
          "name": "spender",
          "type": "address"
        }
      ],
      "name": "allowance",
      "outputs": [
        {
          "internalType": "uint256",
          "name": "",
          "type": "uint256"
        }
      ],
      "stateMutability": "view",
      "type": "function"
    },
    {
      "inputs": [
        {
          "internalType": "address",
          "name": "spender",
          "type": "address"
        },
        {
          "internalType": "uint256",
          "name": "value",
          "type": "uint256"
        }
      ],
      "name": "approve",
      "outputs": [
        {
          "internalType": "bool",
          "name": "",
          "type": "bool"
        }
      ],
      "stateMutability": "nonpayable",
      "type": "function"
    },
    {
      "inputs": [
        {
          "internalType": "address",
          "name": "account",
          "type": "address"
        }
      ],
      "name": "balanceOf",
      "outputs": [
        {
          "internalType": "uint256",
          "name": "",
          "type": "uint256"
        }
      ],
      "stateMutability": "view",
      "type": "function"
    },
    {
      "inputs": [],
      "name": "buyTax",
      "outputs": [
        {
          "internalType": "uint256",
          "name": "",
          "type": "uint256"
        }
      ],
      "stateMutability": "view",
      "type": "function"
    },
    {
      "inputs": [
        {
          "internalType": "address",
          "name": "holder",
          "type": "address"
        }
      ],
      "name": "calculateClaimable",
      "outputs": [
        {
          "internalType": "uint256",
          "name": "",
          "type": "uint256"
        }
      ],
      "stateMutability": "view",
      "type": "function"
    },
    {
      "inputs": [
        {
          "internalType": "address",
          "name": "_receiver",
          "type": "address"
        }
      ],
      "name": "claimReflections",
      "outputs": [],
      "stateMutability": "nonpayable",
      "type": "function"
    },
    {
      "inputs": [
        {
          "internalType": "address",
          "name": "",
          "type": "address"
        }
      ],
      "name": "claimableReflections",
      "outputs": [
        {
          "internalType": "uint256",
          "name": "",
          "type": "uint256"
        }
      ],
      "stateMutability": "view",
      "type": "function"
    },
    {
      "inputs": [],
      "name": "decimals",
      "outputs": [
        {
          "internalType": "uint8",
          "name": "",
          "type": "uint8"
        }
      ],
      "stateMutability": "view",
      "type": "function"
    },
    {
      "inputs": [
        {
          "internalType": "address",
          "name": "account",
          "type": "address"
        },
        {
          "internalType": "bool",
          "name": "excluded",
          "type": "bool"
        }
      ],
      "name": "excludeFromFees",
      "outputs": [],
      "stateMutability": "nonpayable",
      "type": "function"
    },
    {
      "inputs": [],
      "name": "liquidityAllocation",
      "outputs": [
        {
          "internalType": "uint256",
          "name": "",
          "type": "uint256"
        }
      ],
      "stateMutability": "view",
      "type": "function"
    },
    {
      "inputs": [],
      "name": "liquidityPool",
      "outputs": [
        {
          "internalType": "address",
          "name": "",
          "type": "address"
        }
      ],
      "stateMutability": "view",
      "type": "function"
    },
    {
      "inputs": [],
      "name": "name",
      "outputs": [
        {
          "internalType": "string",
          "name": "",
          "type": "string"
        }
      ],
      "stateMutability": "view",
      "type": "function"
    },
    {
      "inputs": [
        {
          "internalType": "address",
          "name": "from",
          "type": "address"
        },
        {
          "internalType": "uint256",
          "name": "amount",
          "type": "uint256"
        }
      ],
      "name": "onERC20Receive",
      "outputs": [
        {
          "internalType": "bool",
          "name": "",
          "type": "bool"
        }
      ],
      "stateMutability": "nonpayable",
      "type": "function"
    },
    {
      "inputs": [],
      "name": "owner",
      "outputs": [
        {
          "internalType": "address",
          "name": "",
          "type": "address"
        }
      ],
      "stateMutability": "view",
      "type": "function"
    },
    {
      "inputs": [],
      "name": "pause",
      "outputs": [],
      "stateMutability": "nonpayable",
      "type": "function"
    },
    {
      "inputs": [],
      "name": "paused",
      "outputs": [
        {
          "internalType": "bool",
          "name": "",
          "type": "bool"
        }
      ],
      "stateMutability": "view",
      "type": "function"
    },
    {
      "inputs": [],
      "name": "reflectionAllocation",
      "outputs": [
        {
          "internalType": "uint256",
          "name": "",
          "type": "uint256"
        }
      ],
      "stateMutability": "view",
      "type": "function"
    },
    {
      "inputs": [],
      "name": "renounceOwnership",
      "outputs": [],
      "stateMutability": "nonpayable",
      "type": "function"
    },
    {
      "inputs": [],
      "name": "sellTax",
      "outputs": [
        {
          "internalType": "uint256",
          "name": "",
          "type": "uint256"
        }
      ],
      "stateMutability": "view",
      "type": "function"
    },
    {
      "inputs": [
        {
          "internalType": "uint256",
          "name": "_liquidityAllocation",
          "type": "uint256"
        },
        {
          "internalType": "uint256",
          "name": "_reflectionAllocation",
          "type": "uint256"
        }
      ],
      "name": "setTaxAllocations",
      "outputs": [],
      "stateMutability": "nonpayable",
      "type": "function"
    },
    {
      "inputs": [
        {
          "internalType": "uint256",
          "name": "_buyTax",
          "type": "uint256"
        },
        {
          "internalType": "uint256",
          "name": "_sellTax",
          "type": "uint256"
        }
      ],
      "name": "setTaxes",
      "outputs": [],
      "stateMutability": "nonpayable",
      "type": "function"
    },
    {
      "inputs": [],
      "name": "symbol",
      "outputs": [
        {
          "internalType": "string",
          "name": "",
          "type": "string"
        }
      ],
      "stateMutability": "view",
      "type": "function"
    },
    {
      "inputs": [],
      "name": "totalReflectionsAccumulated",
      "outputs": [
        {
          "internalType": "uint256",
          "name": "",
          "type": "uint256"
        }
      ],
      "stateMutability": "view",
      "type": "function"
    },
    {
      "inputs": [],
      "name": "totalSupply",
      "outputs": [
        {
          "internalType": "uint256",
          "name": "",
          "type": "uint256"
        }
      ],
      "stateMutability": "view",
      "type": "function"
    },
    {
      "inputs": [
        {
          "internalType": "address",
          "name": "to",
          "type": "address"
        },
        {
          "internalType": "uint256",
          "name": "value",
          "type": "uint256"
        }
      ],
      "name": "transfer",
      "outputs": [
        {
          "internalType": "bool",
          "name": "",
          "type": "bool"
        }
      ],
      "stateMutability": "nonpayable",
      "type": "function"
    },
    {
      "inputs": [
        {
          "internalType": "address",
          "name": "from",
          "type": "address"
        },
        {
          "internalType": "address",
          "name": "to",
          "type": "address"
        },
        {
          "internalType": "uint256",
          "name": "value",
          "type": "uint256"
        }
      ],
      "name": "transferFrom",
      "outputs": [
        {
          "internalType": "bool",
          "name": "",
          "type": "bool"
        }
      ],
      "stateMutability": "nonpayable",
      "type": "function"
    },
    {
      "inputs": [
        {
          "internalType": "address",
          "name": "newOwner",
          "type": "address"
        }
      ],
      "name": "transferOwnership",
      "outputs": [],
      "stateMutability": "nonpayable",
      "type": "function"
    },
    {
      "inputs": [],
      "name": "uniswapRouter",
      "outputs": [
        {
          "internalType": "contract IUniswapV2Router02",
          "name": "",
          "type": "address"
        }
      ],
      "stateMutability": "view",
      "type": "function"
    },
    {
      "inputs": [],
      "name": "unpause",
      "outputs": [],
      "stateMutability": "nonpayable",
      "type": "function"
    },
    {
      "inputs": [],
      "name": "wethAddress",
      "outputs": [
        {
          "internalType": "address",
          "name": "",
          "type": "address"
        }
      ],
      "stateMutability": "view",
      "type": "function"
    },
    {
      "stateMutability": "payable",
      "type": "receive"
    }
  ],
  "bytecode": "0x608060405260056006556005600755600260085560036009553480156200002557600080fd5b5060405162002803380380620028038339810160408190526200004891620005af565b336040518060400160405280601181526020017029b0b332a6b7b7b72634b5b2aa37b5b2b760791b8152506040518060400160405280600481526020016314d3531560e21b8152508160039081620000a1919062000695565b506004620000b0828262000695565b5050506001600160a01b038116620000e357604051631e4fbdf760e01b8152600060048201526024015b60405180910390fd5b620000ee8162000277565b506005805460ff60a01b191690556001600160a01b038216620001545760405162461bcd60e51b815260206004820152601660248201527f496e76616c696420726f757465722061646472657373000000000000000000006044820152606401620000da565b600d80546001600160a01b0319166001600160a01b038416908117909155604080516315ab88c960e31b8152905163ad5c4648916004808201926020929091908290030181865afa158015620001ae573d6000803e3d6000fd5b505050506040513d601f19601f82011682018060405250810190620001d4919062000761565b600c80546001600160a01b03199081166001600160a01b0393841617909155600a80549091169183169190911790556200021d336d7b426fab61f00de3639900000000620002c9565b6200022762000307565b600b80546001600160a01b0319166001600160a01b039290921691821790556040517f969ffc8569f9af3993220e04ac05164e5db4e3d9f8b1a47f64e7de9a04b8ea2f90600090a25050620007aa565b600580546001600160a01b038381166001600160a01b0319831681179093556040519116919082907f8be0079c531659141344cd1fd0a4f28419497f9722a3daafe3b4186f6b6457e090600090a35050565b6001600160a01b038216620002f55760405163ec442f0560e01b815260006004820152602401620000da565b620003036000838362000463565b5050565b600080600d60009054906101000a90046001600160a01b03166001600160a01b031663c45a01556040518163ffffffff1660e01b8152600401602060405180830381865afa1580156200035e573d6000803e3d6000fd5b505050506040513d601f19601f8201168201806040525081019062000384919062000761565b600c546040516364e329cb60e11b81523060048201526001600160a01b0391821660248201529192506000919083169063c9c65396906044016020604051808303816000875af1158015620003dd573d6000803e3d6000fd5b505050506040513d601f19601f8201168201806040525081019062000403919062000761565b90506001600160a01b0381166200045d5760405162461bcd60e51b815260206004820152601f60248201527f4661696c656420746f20637265617465206c697175696469747920706f6f6c006044820152606401620000da565b92915050565b6001600160a01b0383166200049257806002600082825462000486919062000788565b90915550620005069050565b6001600160a01b03831660009081526020819052604090205481811015620004e75760405163391434e360e21b81526001600160a01b03851660048201526024810182905260448101839052606401620000da565b6001600160a01b03841660009081526020819052604090209082900390555b6001600160a01b038216620005245760028054829003905562000543565b6001600160a01b03821660009081526020819052604090208054820190555b816001600160a01b0316836001600160a01b03167fddf252ad1be2c89b69c2b068fc378daa952ba7f163c4a11628f55a4df523b3ef836040516200058991815260200190565b60405180910390a3505050565b6001600160a01b0381168114620005ac57600080fd5b50565b60008060408385031215620005c357600080fd5b8251620005d08162000596565b6020840151909250620005e38162000596565b809150509250929050565b634e487b7160e01b600052604160045260246000fd5b600181811c908216806200061957607f821691505b6020821081036200063a57634e487b7160e01b600052602260045260246000fd5b50919050565b601f82111562000690576000816000526020600020601f850160051c810160208610156200066b5750805b601f850160051c820191505b818110156200068c5782815560010162000677565b5050505b505050565b81516001600160401b03811115620006b157620006b1620005ee565b620006c981620006c2845462000604565b8462000640565b602080601f831160018114620007015760008415620006e85750858301515b600019600386901b1c1916600185901b1785556200068c565b600085815260208120601f198616915b82811015620007325788860151825594840194600190910190840162000711565b5085821015620007515787850151600019600388901b60f8161c191681555b5050505050600190811b01905550565b6000602082840312156200077457600080fd5b8151620007818162000596565b9392505050565b808201808211156200045d57634e487b7160e01b600052601160045260246000fd5b61204980620007ba6000396000f3fe6080604052600436106101c45760003560e01c806383e4874e116100f6578063c647b20e1161008f578063df9c203211610061578063df9c203214610539578063f2fde38b1461054f578063f3f2432e1461056f578063fe7b00071461059c57005b8063c647b20e146104a7578063cc1776d3146104c7578063dd62ed3e146104dd578063dd7a6cfe1461052357005b8063a9059cbb116100c8578063a9059cbb14610434578063abd653d714610454578063b7c638981461046a578063c02466681461048757005b806383e4874e146103cc5780638456cb59146103ec5780638da5cb5b1461040157806395d89b411461041f57005b80634f0e0ef311610168578063665a11ca1161013a578063665a11ca1461034157806370a0823114610361578063715018a614610397578063735de9f7146103ac57005b80634f0e0ef3146102b45780634f7041a5146102ec5780635c975abb14610302578063610fd5261461032157005b806318160ddd116101a157806318160ddd1461024457806323b872dd14610263578063313ce567146102835780633f4ba83a1461029f57005b806303d93828146101cd57806306fdde0314610202578063095ea7b31461022457005b366101cb57005b005b3480156101d957600080fd5b506101ed6101e8366004611b8e565b6105bc565b60405190151581526020015b60405180910390f35b34801561020e57600080fd5b5061021761060b565b6040516101f99190611c0a565b34801561023057600080fd5b506101ed61023f366004611b8e565b61069d565b34801561025057600080fd5b506002545b6040519081526020016101f9565b34801561026f57600080fd5b506101ed61027e366004611c24565b6106b5565b34801561028f57600080fd5b50604051601281526020016101f9565b3480156102ab57600080fd5b506101cb6106d9565b3480156102c057600080fd5b50600c546102d4906001600160a01b031681565b6040516001600160a01b0390911681526020016101f9565b3480156102f857600080fd5b5061025560065481565b34801561030e57600080fd5b50600554600160a01b900460ff166101ed565b34801561032d57600080fd5b506101cb61033c366004611c65565b6106eb565b34801561034d57600080fd5b50600b546102d4906001600160a01b031681565b34801561036d57600080fd5b5061025561037c366004611c87565b6001600160a01b031660009081526020819052604090205490565b3480156103a357600080fd5b506101cb610799565b3480156103b857600080fd5b50600d546102d4906001600160a01b031681565b3480156103d857600080fd5b506101cb6103e7366004611c87565b6107ab565b3480156103f857600080fd5b506101cb61083c565b34801561040d57600080fd5b506005546001600160a01b03166102d4565b34801561042b57600080fd5b5061021761084c565b34801561044057600080fd5b506101ed61044f366004611b8e565b61085b565b34801561046057600080fd5b5061025560085481565b34801561047657600080fd5b50610255680d8d726b7177a8000081565b34801561049357600080fd5b506101cb6104a2366004611cb2565b610869565b3480156104b357600080fd5b506101cb6104c2366004611c65565b61089c565b3480156104d357600080fd5b5061025560075481565b3480156104e957600080fd5b506102556104f8366004611ceb565b6001600160a01b03918216600090815260016020908152604080832093909416825291909152205490565b34801561052f57600080fd5b5061025560115481565b34801561054557600080fd5b5061025560095481565b34801561055b57600080fd5b506101cb61056a366004611c87565b610942565b34801561057b57600080fd5b5061025561058a366004611c87565b60106020526000908152604090205481565b3480156105a857600080fd5b506102556105b7366004611c87565b610999565b604080516001600160a01b0384168152602081018390526000917f2946de6c4ec03d8d15126164a7c0da68d7c6835173e41827a7a715f8becb07a8910160405180910390a15060015b92915050565b60606003805461061a90611d19565b80601f016020809104026020016040519081016040528092919081815260200182805461064690611d19565b80156106935780601f1061066857610100808354040283529160200191610693565b820191906000526020600020905b81548152906001019060200180831161067657829003601f168201915b5050505050905090565b6000336106ab818585610ae0565b5060019392505050565b6000336106c3858285610af2565b6106ce858585610b89565b506001949350505050565b6106e1610e44565b6106e9610e8a565b565b6106f3610e44565b6106fd8183611d69565b6005146107515760405162461bcd60e51b815260206004820152601d60248201527f416c6c6f636174696f6e73206d7573742061646420757020746f20352500000060448201526064015b60405180910390fd5b6008829055600981905560408051838152602081018390527f487da67d427046729cb7e70d6ca9de66d8d44374531a8cd7a4016a0060644c7f91015b60405180910390a15050565b6107a1610e44565b6106e96000610edf565b60006107b682610999565b90506000811161082e5760405162461bcd60e51b815260206004820152602260248201527f4e6f20636c61696d61626c65207265666c656374696f6e7320617661696c616260448201527f6c650000000000000000000000000000000000000000000000000000000000006064820152608401610748565b6108388282610f49565b5050565b610844610e44565b6106e96110dd565b60606004805461061a90611d19565b6000336106ab818585610b89565b610871610e44565b6001600160a01b03919091166000908152600e60205260409020805460ff1916911515919091179055565b6108a4610e44565b600a82111580156108b65750600a8111155b6109025760405162461bcd60e51b815260206004820152601560248201527f5461782063616e6e6f74206578636565642031302500000000000000000000006044820152606401610748565b6006829055600781905560408051838152602081018390527f35d461df023e70886ad5e68610133ecb7d637c2263453f6ea50daf699cb31ed4910161078d565b61094a610e44565b6001600160a01b03811661098d576040517f1e4fbdf700000000000000000000000000000000000000000000000000000000815260006004820152602401610748565b61099681610edf565b50565b6001600160a01b038116600090815260208190526040812054680d8d726b7177a800008110156109cc5750600092915050565b600080805260208190527fad3228b676f7d3cd4284a5443f17f1962b36e491b30a40b2405849e597ba5fb554600254610a059190611d7c565b905060008160115484610a189190611d8f565b610a229190611da6565b9050600060106000876001600160a01b03166001600160a01b03168152602001908152602001600020549050610a8d6040518060400160405280600f81526020017f7265666c656374696f6e5368617265000000000000000000000000000000000081525083611120565b610acc6040518060400160405280600e81526020017f616c7265616479436c61696d656400000000000000000000000000000000000081525082611120565b610ad68183611d7c565b9695505050505050565b610aed8383836001611193565b505050565b6001600160a01b038381166000908152600160209081526040808320938616835292905220546000198114610b835781811015610b74576040517ffb8f41b20000000000000000000000000000000000000000000000000000000081526001600160a01b03841660048201526024810182905260448101839052606401610748565b610b8384848484036000611193565b50505050565b610b9161129a565b6001600160a01b0383166000908152600e602052604090205460ff1680610bd057506001600160a01b0382166000908152600e602052604090205460ff165b15610be057610aed8383836112de565b600b546000906001600160a01b03848116911614610c0057600654610c04565b6007545b905060006064610c148385611d8f565b610c1e9190611da6565b90506000610c2c8285611d7c565b905060008360085484610c3f9190611d8f565b610c499190611da6565b90506000610c578285611d7c565b90506000610c66600284611da6565b90506000610c748285611d7c565b90506000610c828483611d69565b9050610c8f8b30896112de565b6000610c9a8261136f565b905060008615610cb057610cad8561151c565b90505b8515610cc857610cc8610cc38284611d7c565b611777565b610cd38d8d8a6112de565b6000610cde8e610999565b90506000610ceb8e610999565b604080518082018252601581527f5745544820434f4e54524143542042414c414e434500000000000000000000006020820152600c5491516370a0823160e01b8152306004820152929350610d959290916001600160a01b0316906370a0823190602401602060405180830381865afa158015610d6c573d6000803e3d6000fd5b505050506040513d601f19601f82011682018060405250810190610d909190611dc8565b611120565b610dd46040518060400160405280600f81526020017f636c61696d416d6f756e7446726f6d000000000000000000000000000000000081525083611120565b610e136040518060400160405280600d81526020017f636c61696d416d6f756e74546f0000000000000000000000000000000000000081525082611120565b8115610e2357610e238f83610f49565b8015610e3357610e338e82610f49565b505050505050505050505050505050565b6005546001600160a01b031633146106e9576040517f118cdaa7000000000000000000000000000000000000000000000000000000008152336004820152602401610748565b610e926117c4565b6005805460ff60a01b191690557f5db9ee0a495bf2e6ff9c91a7834c1ba4fdd244a5e8aa4e537bd38aeae4b073aa335b6040516001600160a01b03909116815260200160405180910390a1565b600580546001600160a01b038381167fffffffffffffffffffffffff0000000000000000000000000000000000000000831681179093556040519116919082907f8be0079c531659141344cd1fd0a4f28419497f9722a3daafe3b4186f6b6457e090600090a35050565b6001600160a01b03821660009081526010602052604081208054839290610f71908490611d69565b9091555050600c54604080516001600160a01b038581166024830152604480830186905283518084039091018152606490920183526020820180517bffffffffffffffffffffffffffffffffffffffffffffffffffffffff167fa9059cbb00000000000000000000000000000000000000000000000000000000179052915160009392909216916110029190611de1565b6000604051808303816000865af19150503d806000811461103f576040519150601f19603f3d011682016040523d82523d6000602084013e611044565b606091505b50509050806110955760405162461bcd60e51b815260206004820152601560248201527f546f6b656e207472616e73666572206661696c656400000000000000000000006044820152606401610748565b826001600160a01b03167fcaa03033c11df8560eb1a698ca7632211dfb8d82def73ba95db35495cd6a671b836040516110d091815260200190565b60405180910390a2505050565b6110e561129a565b6005805460ff60a01b1916600160a01b1790557f62e78cea01bee320cd4e420270b5ea74000d11b0c9f74754ebdbfc544b05a258610ec23390565b6108388282604051602401611136929190611dfd565b60408051601f198184030181529190526020810180517bffffffffffffffffffffffffffffffffffffffffffffffffffffffff167fb60e72cc00000000000000000000000000000000000000000000000000000000179052611807565b6001600160a01b0384166111d6576040517fe602df0500000000000000000000000000000000000000000000000000000000815260006004820152602401610748565b6001600160a01b038316611219576040517f94280d6200000000000000000000000000000000000000000000000000000000815260006004820152602401610748565b6001600160a01b0380851660009081526001602090815260408083209387168352929052208290558015610b8357826001600160a01b0316846001600160a01b03167f8c5be1e5ebec7d5bd14f71427d1e84f3dd0314c0f7b2291e5b200ac8c7c3b9258460405161128c91815260200190565b60405180910390a350505050565b600554600160a01b900460ff16156106e9576040517fd93c066500000000000000000000000000000000000000000000000000000000815260040160405180910390fd5b6001600160a01b038316611321576040517f96c6fd1e00000000000000000000000000000000000000000000000000000000815260006004820152602401610748565b6001600160a01b038216611364576040517fec442f0500000000000000000000000000000000000000000000000000000000815260006004820152602401610748565b610aed838383611810565b600080600061137d84611953565b600d54919350915061139a9030906001600160a01b031686610ae0565b600d54600a546040517f5c11d7950000000000000000000000000000000000000000000000000000000081526001600160a01b0392831692635c11d795926113f092899260009288929116904290600401611e64565b600060405180830381600087803b15801561140a57600080fd5b505af115801561141e573d6000803e3d6000fd5b5050600a54600d54604080516315ab88c960e31b815290516001600160a01b039384169550636a092e799450919092169163ad5c46489160048083019260209291908290030181865afa158015611479573d6000803e3d6000fd5b505050506040513d601f19601f8201168201806040525081019061149d9190611ea0565b6040517fffffffff0000000000000000000000000000000000000000000000000000000060e084901b1681526001600160a01b039091166004820152306024820152604401600060405180830381600087803b1580156114fc57600080fd5b505af1158015611510573d6000803e3d6000fd5b50939695505050505050565b600c546040516370a0823160e01b815230600482015260009182916001600160a01b03909116906370a0823190602401602060405180830381865afa158015611569573d6000803e3d6000fd5b505050506040513d601f19601f8201168201806040525081019061158d9190611dc8565b9050600061159a84611953565b5090506000821180156115ad5750600081115b1561177057600d546115ca9030906001600160a01b031686610ae0565b600c54600d546040517f095ea7b30000000000000000000000000000000000000000000000000000000081526001600160a01b0391821660048201526024810185905291169063095ea7b3906044016020604051808303816000875af1158015611638573d6000803e3d6000fd5b505050506040513d601f19601f8201168201806040525081019061165c9190611ebd565b50600d54600c546000916001600160a01b039081169163e8e33700913091168886606461168a836063611d8f565b6116949190611da6565b60646116a18a6063611d8f565b6116ab9190611da6565b6005546001600160a01b031660405160e089901b7fffffffff000000000000000000000000000000000000000000000000000000001681526001600160a01b039788166004820152958716602487015260448601949094526064850192909252608484015260a483015290911660c48201524260e4820152610104016060604051808303816000875af1158015611746573d6000803e3d6000fd5b505050506040513d601f19601f8201168201806040525081019061176a9190611eda565b50945050505b5050919050565b80601160008282546117899190611d69565b90915550506040518181527f3eeb9763473a030c467b8f096a99e1825a88c6a821c131e1fbb007246a80359c9060200160405180910390a150565b600554600160a01b900460ff166106e9576040517f8dfc202b00000000000000000000000000000000000000000000000000000000815260040160405180910390fd5b61099681611b58565b6001600160a01b03831661183b5780600260008282546118309190611d69565b909155506118c69050565b6001600160a01b038316600090815260208190526040902054818110156118a7576040517fe450d38c0000000000000000000000000000000000000000000000000000000081526001600160a01b03851660048201526024810182905260448101839052606401610748565b6001600160a01b03841660009081526020819052604090209082900390555b6001600160a01b0382166118e257600280548290039055611901565b6001600160a01b03821660009081526020819052604090208054820190555b816001600160a01b0316836001600160a01b03167fddf252ad1be2c89b69c2b068fc378daa952ba7f163c4a11628f55a4df523b3ef8360405161194691815260200190565b60405180910390a3505050565b60006060600083116119cd5760405162461bcd60e51b815260206004820152602660248201527f546f6b656e20616d6f756e74206d75737420626520677265617465722074686160448201527f6e207a65726f00000000000000000000000000000000000000000000000000006064820152608401610748565b60408051600280825260608201835290916020830190803683370190505090503081600081518110611a0157611a01611f1e565b6001600160a01b03928316602091820292909201810191909152600d54604080516315ab88c960e31b81529051919093169263ad5c46489260048083019391928290030181865afa158015611a5a573d6000803e3d6000fd5b505050506040513d601f19601f82011682018060405250810190611a7e9190611ea0565b81600181518110611a9157611a91611f1e565b6001600160a01b039283166020918202929092010152600d546040517fd06ca61f000000000000000000000000000000000000000000000000000000008152600092919091169063d06ca61f90611aee9087908690600401611f34565b600060405180830381865afa158015611b0b573d6000803e3d6000fd5b505050506040513d6000823e601f3d908101601f19168201604052611b339190810190611f55565b905080600181518110611b4857611b48611f1e565b6020026020010151925050915091565b60006a636f6e736f6c652e6c6f679050600080835160208501845afa505050565b6001600160a01b038116811461099657600080fd5b60008060408385031215611ba157600080fd5b8235611bac81611b79565b946020939093013593505050565b60005b83811015611bd5578181015183820152602001611bbd565b50506000910152565b60008151808452611bf6816020860160208601611bba565b601f01601f19169290920160200192915050565b602081526000611c1d6020830184611bde565b9392505050565b600080600060608486031215611c3957600080fd5b8335611c4481611b79565b92506020840135611c5481611b79565b929592945050506040919091013590565b60008060408385031215611c7857600080fd5b50508035926020909101359150565b600060208284031215611c9957600080fd5b8135611c1d81611b79565b801515811461099657600080fd5b60008060408385031215611cc557600080fd5b8235611cd081611b79565b91506020830135611ce081611ca4565b809150509250929050565b60008060408385031215611cfe57600080fd5b8235611d0981611b79565b91506020830135611ce081611b79565b600181811c90821680611d2d57607f821691505b602082108103611d4d57634e487b7160e01b600052602260045260246000fd5b50919050565b634e487b7160e01b600052601160045260246000fd5b8082018082111561060557610605611d53565b8181038181111561060557610605611d53565b808202811582820484141761060557610605611d53565b600082611dc357634e487b7160e01b600052601260045260246000fd5b500490565b600060208284031215611dda57600080fd5b5051919050565b60008251611df3818460208701611bba565b9190910192915050565b604081526000611e106040830185611bde565b90508260208301529392505050565b60008151808452602080850194506020840160005b83811015611e595781516001600160a01b031687529582019590820190600101611e34565b509495945050505050565b85815284602082015260a060408201526000611e8360a0830186611e1f565b6001600160a01b0394909416606083015250608001529392505050565b600060208284031215611eb257600080fd5b8151611c1d81611b79565b600060208284031215611ecf57600080fd5b8151611c1d81611ca4565b600080600060608486031215611eef57600080fd5b8351925060208401519150604084015190509250925092565b634e487b7160e01b600052604160045260246000fd5b634e487b7160e01b600052603260045260246000fd5b828152604060208201526000611f4d6040830184611e1f565b949350505050565b60006020808385031215611f6857600080fd5b825167ffffffffffffffff80821115611f8057600080fd5b818501915085601f830112611f9457600080fd5b815181811115611fa657611fa6611f08565b8060051b604051601f19603f83011681018181108582111715611fcb57611fcb611f08565b604052918252848201925083810185019188831115611fe957600080fd5b938501935b8285101561200757845184529385019392850192611fee565b9897505050505050505056fea26469706673582212208bda927d66b15901c4b1590537f3569058688677a6bf0d6d8021da7072e4540b64736f6c63430008170033",
  "linkReferences": {},
  "deployedLinkReferences": {}
}